{
  "contractName": "AdAuction",
  "abi": [
    {
      "inputs": [
        {
          "internalType": "string",
          "name": "_imageLink",
          "type": "string"
        },
        {
          "internalType": "string",
          "name": "_text",
          "type": "string"
        },
        {
          "internalType": "uint256",
          "name": "_duration",
          "type": "uint256"
        }
      ],
      "stateMutability": "nonpayable",
      "type": "constructor"
    },
    {
      "anonymous": false,
      "inputs": [
        {
          "indexed": false,
          "internalType": "string",
          "name": "imageLink",
          "type": "string"
        },
        {
          "indexed": false,
          "internalType": "string",
          "name": "text",
          "type": "string"
        },
        {
          "indexed": false,
          "internalType": "address",
          "name": "currentHighestBidder",
          "type": "address"
        },
        {
          "indexed": false,
          "internalType": "uint256",
          "name": "currentHighestBid",
          "type": "uint256"
        }
      ],
      "name": "AdUpdated",
      "type": "event"
    },
    {
      "inputs": [],
      "name": "auctionEndTime",
      "outputs": [
        {
          "internalType": "uint256",
          "name": "",
          "type": "uint256"
        }
      ],
      "stateMutability": "view",
      "type": "function"
    },
    {
      "inputs": [],
      "name": "currentAd",
      "outputs": [
        {
          "internalType": "string",
          "name": "imageLink",
          "type": "string"
        },
        {
          "internalType": "string",
          "name": "text",
          "type": "string"
        },
        {
          "internalType": "address",
          "name": "currentHighestBidder",
          "type": "address"
        },
        {
          "internalType": "uint256",
          "name": "currentHighestBid",
          "type": "uint256"
        }
      ],
      "stateMutability": "view",
      "type": "function"
    },
    {
      "inputs": [
        {
          "internalType": "string",
          "name": "_imageLink",
          "type": "string"
        },
        {
          "internalType": "string",
          "name": "_text",
          "type": "string"
        }
      ],
      "name": "bid",
      "outputs": [],
      "stateMutability": "payable",
      "type": "function"
    }
  ],
  "bytecode": "0x60806040523480156200001157600080fd5b5060405162000d4338038062000d43833981810160405281019062000037919062000259565b6040518060800160405280848152602001838152602001600073ffffffffffffffffffffffffffffffffffffffff16815260200160008152506000808201518160000190805190602001906200008f92919062000120565b506020820151816001019080519060200190620000ae92919062000120565b5060408201518160020160006101000a81548173ffffffffffffffffffffffffffffffffffffffff021916908373ffffffffffffffffffffffffffffffffffffffff16021790555060608201518160030155905050804262000111919062000348565b600481905550505050620004c2565b8280546200012e90620003e5565b90600052602060002090601f0160209004810192826200015257600085556200019e565b82601f106200016d57805160ff19168380011785556200019e565b828001600101855582156200019e579182015b828111156200019d57825182559160200191906001019062000180565b5b509050620001ad9190620001b1565b5090565b5b80821115620001cc576000816000905550600101620001b2565b5090565b6000620001e7620001e18462000315565b620002e1565b9050828152602081018484840111156200020057600080fd5b6200020d848285620003af565b509392505050565b600082601f8301126200022757600080fd5b815162000239848260208601620001d0565b91505092915050565b6000815190506200025381620004a8565b92915050565b6000806000606084860312156200026f57600080fd5b600084015167ffffffffffffffff8111156200028a57600080fd5b620002988682870162000215565b935050602084015167ffffffffffffffff811115620002b657600080fd5b620002c48682870162000215565b9250506040620002d78682870162000242565b9150509250925092565b6000604051905081810181811067ffffffffffffffff821117156200030b576200030a62000479565b5b8060405250919050565b600067ffffffffffffffff82111562000333576200033262000479565b5b601f19601f8301169050602081019050919050565b60006200035582620003a5565b91506200036283620003a5565b9250827fffffffffffffffffffffffffffffffffffffffffffffffffffffffffffffffff038211156200039a57620003996200041b565b5b828201905092915050565b6000819050919050565b60005b83811015620003cf578082015181840152602081019050620003b2565b83811115620003df576000848401525b50505050565b60006002820490506001821680620003fe57607f821691505b602082108114156200041557620004146200044a565b5b50919050565b7f4e487b7100000000000000000000000000000000000000000000000000000000600052601160045260246000fd5b7f4e487b7100000000000000000000000000000000000000000000000000000000600052602260045260246000fd5b7f4e487b7100000000000000000000000000000000000000000000000000000000600052604160045260246000fd5b620004b381620003a5565b8114620004bf57600080fd5b50565b61087180620004d26000396000f3fe6080604052600436106100345760003560e01c80634b449cba146100395780635c86110c14610064578063a4f2613d14610092575b600080fd5b34801561004557600080fd5b5061004e6100ae565b60405161005b9190610684565b60405180910390f35b34801561007057600080fd5b506100796100b4565b60405161008994939291906105f1565b60405180910390f35b6100ac60048036038101906100a791906104ae565b610202565b005b60045481565b60008060000180546100c59061079a565b80601f01602080910402602001604051908101604052809291908181526020018280546100f19061079a565b801561013e5780601f106101135761010080835404028352916020019161013e565b820191906000526020600020905b81548152906001019060200180831161012157829003601f168201915b5050505050908060010180546101539061079a565b80601f016020809104026020016040519081016040528092919081815260200182805461017f9061079a565b80156101cc5780601f106101a1576101008083540402835291602001916101cc565b820191906000526020600020905b8154815290600101906020018083116101af57829003601f168201915b5050505050908060020160009054906101000a900473ffffffffffffffffffffffffffffffffffffffff16908060030154905084565b6004544210610246576040517f08c379a000000000000000000000000000000000000000000000000000000000815260040161023d90610644565b60405180910390fd5b600060030154341161028d576040517f08c379a000000000000000000000000000000000000000000000000000000000815260040161028490610664565b60405180910390fd5b60008060020160009054906101000a900473ffffffffffffffffffffffffffffffffffffffff16905033600060020160006101000a81548173ffffffffffffffffffffffffffffffffffffffff021916908373ffffffffffffffffffffffffffffffffffffffff160217905550346000600301819055508260008001908051906020019061031c9291906103a3565b5081600060010190805190602001906103369291906103a3565b507f67c0028ff0c8b9f4fa39844645936c84546eab45ee2654d8ebee75e6bcb7ed618383600060020160009054906101000a900473ffffffffffffffffffffffffffffffffffffffff1660006003015460405161039694939291906105f1565b60405180910390a1505050565b8280546103af9061079a565b90600052602060002090601f0160209004810192826103d15760008555610418565b82601f106103ea57805160ff1916838001178555610418565b82800160010185558215610418579182015b828111156104175782518255916020019190600101906103fc565b5b5090506104259190610429565b5090565b5b8082111561044257600081600090555060010161042a565b5090565b6000610459610454846106d0565b61069f565b90508281526020810184848401111561047157600080fd5b61047c848285610758565b509392505050565b600082601f83011261049557600080fd5b81356104a5848260208601610446565b91505092915050565b600080604083850312156104c157600080fd5b600083013567ffffffffffffffff8111156104db57600080fd5b6104e785828601610484565b925050602083013567ffffffffffffffff81111561050457600080fd5b61051085828601610484565b9150509250929050565b6105238161071c565b82525050565b600061053482610700565b61053e818561070b565b935061054e818560208601610767565b6105578161082a565b840191505092915050565b600061056f60128361070b565b91507f41756374696f6e2068617320656e6465642e00000000000000000000000000006000830152602082019050919050565b60006105af60168361070b565b91507f42696420616d6f756e7420697320746f6f206c6f772e000000000000000000006000830152602082019050919050565b6105eb8161074e565b82525050565b6000608082019050818103600083015261060b8187610529565b9050818103602083015261061f8186610529565b905061062e604083018561051a565b61063b60608301846105e2565b95945050505050565b6000602082019050818103600083015261065d81610562565b9050919050565b6000602082019050818103600083015261067d816105a2565b9050919050565b600060208201905061069960008301846105e2565b92915050565b6000604051905081810181811067ffffffffffffffff821117156106c6576106c56107fb565b5b8060405250919050565b600067ffffffffffffffff8211156106eb576106ea6107fb565b5b601f19601f8301169050602081019050919050565b600081519050919050565b600082825260208201905092915050565b60006107278261072e565b9050919050565b600073ffffffffffffffffffffffffffffffffffffffff82169050919050565b6000819050919050565b82818337600083830152505050565b60005b8381101561078557808201518184015260208101905061076a565b83811115610794576000848401525b50505050565b600060028204905060018216806107b257607f821691505b602082108114156107c6576107c56107cc565b5b50919050565b7f4e487b7100000000000000000000000000000000000000000000000000000000600052602260045260246000fd5b7f4e487b7100000000000000000000000000000000000000000000000000000000600052604160045260246000fd5b6000601f19601f830116905091905056fea264697066735822122070056b6c61d38f2a9236909a47a4d380f099d39c615eb8be0519d4bfcab33ad264736f6c63430008000033",
  "immutableReferences": {},
  "source": "pragma solidity ^0.8.0;\n\ncontract AdAuction {\n    struct Ad {\n        string imageLink;\n        string text;\n        address currentHighestBidder;\n        uint currentHighestBid;\n    }\n    \n    Ad public currentAd;\n    uint public auctionEndTime;\n    \n    event AdUpdated(string imageLink, string text, address currentHighestBidder, uint currentHighestBid);\n    \n    constructor(string memory _imageLink, string memory _text, uint _duration) {\n        currentAd = Ad({\n            imageLink: _imageLink,\n            text: _text,\n            currentHighestBidder: address(0),\n            currentHighestBid: 0\n        });\n        auctionEndTime = block.timestamp + _duration;\n    }\n    \n    function bid(string memory _imageLink, string memory _text) public payable {\n        require(block.timestamp < auctionEndTime, \"Auction has ended.\");\n        require(msg.value > currentAd.currentHighestBid, \"Bid amount is too low.\");\n        \n        address payable currentHighestBidder = payable(currentAd.currentHighestBidder);        currentAd.currentHighestBidder = msg.sender;\n        currentAd.currentHighestBid = msg.value;\n        currentAd.imageLink = _imageLink;\n        currentAd.text = _text;\n        \n        emit AdUpdated(_imageLink, _text, currentAd.currentHighestBidder, currentAd.currentHighestBid);\n    }\n}\n",
  "sourcePath": "/Users/ayushjain/Documents/ACS/Year_2-Term_4/Decentralized/Advertisement_Auction/advertisementauction/ad-auction/contracts/AdAuction.sol",
  "compiler": {
    "name": "solc",
    "version": "0.8.0+commit.c7dfd78e.Emscripten.clang"
  },
  "schemaVersion": "3.4.13",
  "updatedAt": "2023-03-08T06:06:01.637Z",
  "devdoc": {
    "kind": "dev",
    "methods": {},
    "version": 1
  },
  "userdoc": {
    "kind": "user",
    "methods": {},
    "version": 1
  }
}